:100000000C9434000C9453000C9451000C94510047
:100010000C9451000C9451000C9451000C9451001C
:100020000C9451000C94F4000C9451000C94510069
:100030000C9451000C9451000C9451000C945100FC
:100040000C9476000C9451000C9451000C945100C7
:100050000C9451000C9451000C9451000C945100DC
:100060000C9451000C94510011241FBECFEFD8E026
:10007000DEBFCDBF11E0A0E0B1E0E2EEFDE002C0E6
:1000800005900D92A632B107D9F721E0A6E2B1E0C2
:1000900001C01D92A534B207E1F70E94CE010C9475
:1000A000EF060C9400001F921FB61F9211248F932D
:1000B0009F93AF93BF938091410190914201A09192
:1000C0004301B09144010196A11DB11D80934101EE
:1000D00090934201A0934301B0934401BF91AF912B
:1000E0009F918F911F901FBE1F9018951F920F9286
:1000F0000FB60F9211244F925F926F927F928F9260
:100100009F92AF92BF92CF92DF92EF92FF922F9386
:100110003F934F935F936F937F938F939F93AF938F
:10012000BF93CF93DF93EF93FF9314BC8091400173
:10013000843190F11092400160914101709142012F
:1001400080914301909144010E942B0320E030E014
:1001500040E05CE32B013C01C301B2010E94B90302
:1001600020E030E040E251E44B015C01C501B40104
:100170000E94B9036B017C01C701B6010E94FC0219
:1001800070933E0160933D01109241011092420133
:100190001092430110924401809140018F5F80933F
:1001A000400185E084BD86E086BDFF91EF91DF913F
:1001B000CF91BF91AF919F918F917F916F915F91FF
:1001C0004F913F912F91FF90EF90DF90CF90BF9094
:1001D000AF909F908F907F906F905F904F900F9017
:1001E0000FBE0F901F9018951F921FB61F921124DB
:1001F0002F933F938F939F931092B00080913F0174
:10020000853030F110923F01189937C08FE39CE997
:100210000197F1F700C00000189910C0189BFECF9D
:1002200080913B0190913C018C509E4F8F332FE188
:10023000920700F590933C0180933B0120913B0194
:1002400030913C015B9958C030938900209388001D
:1002500080913F018F5F80933F011092B20087E051
:100260008093B0009F918F913F912F911F901FBE5F
:100270001F9018958FE39FE1DDCF19991DC08091E4
:100280003B0190913C01843F914088F08FE39CE9D1
:100290000197F1F700C000001999D0CF199BFECF4C
:1002A00080913B0190913C01845F9140C3CF1092BB
:1002B0003C0110923B01C2CF1A990FC08FE39CE919
:1002C0000197F1F700C000001A99B8CF1A9BFECF32
:1002D0008BB198E089278BB9B1CF1B99AFCF8FE352
:1002E0009CE90197F1F700C000001B99A7CF1B9B69
:1002F000FECF8BB192E0EECF8FE39FE1821B930B99
:100300009093890080938800A3CF419A85E08A95D5
:10031000F1F7000041988FE39FE10197F1F700C0EA
:100320000000089588B940980C94850188B9409AD6
:100330000C94850181E00E9492018FE39FE1019777
:10034000F1F700C0000008958FEF87B92FEF89EF14
:1003500090E0215080409040E1F700C0000088E329
:100360000E9492018CE00E94920186E00E9492011C
:1003700081E00C949201611103C080580C949201A9
:100380008054FCCFCF93DF93EC018991811103C09E
:10039000DF91CF9108950E949601F7CF84B1807FBD
:1003A00084B985B18F6085B98AB18A628AB985E0DE
:1003B00084BD86E086BD92E89093800099E1909399
:1003C00081002FE33FE13093870020938600109255
:1003D00089001092880097E09093B0008093B2005B
:1003E00081E080936E0080937000E89A85B7826008
:1003F00085BF0E94A40178940E949A0160E080E089
:100400000E94BB0180E091E00E94C20161E080E0B7
:100410000E94BB0187E091E00E94C20100E111E06F
:10042000C6E2D1E08DE1282E81E0382E61E088E03F
:100430000E94BB0180913D0190913E016AE070E015
:100440000E9476029F938F937F936F931F930F93D6
:10045000DF93CF930E94260486E291E00E94C201BE
:1004600060E086E00E94BB0160913B0170913C011D
:1004700080E090E00E942B0320E038EF49EF55E444
:100480002B013C01C301B2010E948A0220E030E04E
:1004900048EC52E44B015C01C501B4010E94B90370
:1004A0006B017C01C701B6010E94FC0260933A0116
:1004B0001F926F933F922F92DF93CF930E94260457
:1004C00086E291E00E94C2018FEF91EE24E081501C
:1004D00090402040E1F700C000008DB79EB70E9617
:1004E0000FB6F8949EBF0FBE8DBFA0CFAA1BBB1B3B
:1004F00051E107C0AA1FBB1FA617B70710F0A61B24
:10050000B70B881F991F5A95A9F780959095BC0144
:10051000CD0108950E949E020C947F030E947803EF
:1005200058F00E94710340F029F45F3F29F00C94C9
:10053000680351110C94B3030C946E030E94900352
:1005400068F39923B1F3552391F3951B550BBB2702
:10055000AA2762177307840738F09F5F5F4F220F47
:10056000331F441FAA1FA9F335D00E2E3AF0E0E83E
:1005700032D091505040E695001CCAF72BD0FE2F88
:1005800029D0660F771F881FBB1F2617370748071C
:10059000AB07B0E809F0BB0B802DBF01FF279358D4
:1005A0005F4F3AF09E3F510578F00C9468030C942D
:1005B000B3035F3FE4F3983ED4F386957795679550
:1005C000B795F7959F5FC9F7880F911D9695879509
:1005D00097F90895E1E0660F771F881FBB1F621728
:1005E00073078407BA0720F0621B730B840BBA0BE6
:1005F000EE1F88F7E09508950E94980388F09F57B2
:1006000098F0B92F9927B751B0F0E1F0660F771F36
:10061000881F991F1AF0BA95C9F714C0B13091F02C
:100620000E94B203B1E008950C94B203672F782FB3
:100630008827B85F39F0B93FCCF3869577956795F1
:10064000B395D9F73EF490958095709561957F4F5D
:100650008F4F9F4F0895E89409C097FB3EF4909503
:100660008095709561957F4F8F4F9F4F9923A9F08B
:10067000F92F96E9BB279395F6958795779567951A
:10068000B795F111F8CFFAF4BB0F11F460FF1BC05E
:100690006F5F7F4F8F4F9F4F16C0882311F096E9F1
:1006A00011C0772321F09EE8872F762F05C066239F
:1006B00071F096E8862F70E060E02AF09A95660F58
:1006C000771F881FDAF7880F9695879597F9089511
:1006D00097F99F6780E870E060E008959FEF80ECF5
:1006E000089500240A941616170618060906089598
:1006F00000240A9412161306140605060895092EFE
:100700000394000C11F4882352F0BB0F40F4BF2B6C
:1007100011F460FF04C06F5F7F4F8F4F9F4F0895AC
:1007200057FD9058440F551F59F05F3F71F04795A2
:10073000880F97FB991F61F09F3F79F08795089587
:10074000121613061406551FF2CF4695F1DF08C0A6
:10075000161617061806991FF1CF869571056105C3
:1007600008940895E894BB2766277727CB0197F96B
:1007700008950E94CC030C947F030E94710338F00B
:100780000E94780320F0952311F00C9468030C94D8
:100790006E0311240C94B3030E94900370F3959F91
:1007A000C1F3950F50E0551F629FF001729FBB2768
:1007B000F00DB11D639FAA27F00DB11DAA1F649F04
:1007C0006627B00DA11D661F829F2227B00DA11DB7
:1007D000621F739FB00DA11D621F839FA00D611D3D
:1007E000221F749F3327A00D611D231F849F600D5E
:1007F000211D822F762F6A2F11249F5750409AF087
:10080000F1F088234AF0EE0FFF1FBB1F661F771F12
:10081000881F91505040A9F79E3F510580F00C94DD
:1008200068030C94B3035F3FE4F3983ED4F38695DA
:1008300077956795B795F795E7959F5FC1F7FE2B7D
:10084000880F911D9695879597F90895AEE0B0E0D1
:10085000ECE2F4E00C94C6060D891E8986E08C83D8
:100860001A8309838FEF9FE79E838D83AE01475ED6
:100870005F4F6F89788DCE0101960E9449042F81C8
:100880003885020F131FF80110822E96E4E00C94B5
:10089000E206ABE0B0E0EFE4F4E00C94B8067C01D3
:1008A0003B018A01FC0117821682838181FFB9C155
:1008B0009AE0292ECE0101965C01F7019381F301A4
:1008C00093FD859193FF81913F01882309F446C1EF
:1008D000853239F493FD859193FF81913F018532F3
:1008E00029F4B70190E00E942A06E7CF912C412C11
:1008F000512CFFE1F51538F08B3209F188F4803284
:1009000001F1833221F157FC3AC020ED280F2A3043
:1009100040F556FE1FC0929C200D1124922E06C059
:100920008D3291F0803379F7689450F8F30193FD9C
:10093000859193FF81913F018111DBCF20C06894A5
:1009400051F8689452F8F2CF689453F8EFCF689456
:1009500054F8ECCF429C200D1124422E689455F897
:10096000E5CF8E3229F456FCF9C0689456F8DECFF4
:100970008C3619F4689457F8D9CF8836B9F2982F85
:100980009F7D95549330C0F08336A1F18337C1F138
:10099000833509F05BC0F801C190D1908F01692DBA
:1009A00070E056FC02C06FEF7FEFC6010E94140694
:1009B0004C01689457F80AC00C5F1F4F2FE329833E
:1009C00088248394912C6501E89457F853FC04C063
:1009D0004814190409F018F5342C8114910431F5E8
:1009E000332009F46ACFB70180E290E00E942A0622
:1009F0003A94F6CFF801808189830E5F1F4FE0CFD4
:100A0000F801C190D1908F01692D70E056FC02C0B1
:100A10006FEF7FEFC6010E941F064C01D5CFB701D3
:100A200080E290E00E942A064A94D2CFF60157FC59
:100A3000859157FE81916F01B70190E00E942A06CF
:100A400031103A94F1E08F1A9108C7CF843619F02B
:100A5000893609F074C0F80157FE6AC0619171913E
:100A6000819191918F01252D2F76D22E97FF09C06C
:100A700090958095709561957F4F8F4F9F4F6894AB
:100A8000D7F82AE030E0A5010E945A06C82ECA18FD
:100A90008C2C5D2CD6FE0CC0E89450F8C91440F4A0
:100AA000D4FE05C0D2FC03C0FD2DFE7E5F2E892C36
:100AB00054FE8FC0FE01EC0DF11D8081803309F0E2
:100AC00081C0252D297E522E852D8870382E53FC0D
:100AD0008FC050FE89C09C2C841418F44C0C942CAC
:100AE000981854FE8BC0B70180E390E00E942A065C
:100AF00052FE09C088E790E051FE02C088E590E010
:100B0000B7010E942A06C91408F484C0CA94D12CE3
:100B10009FEFC91AD90ACA0CDB1CF60182916F013A
:100B2000B70190E00E942A06AC14BD04B1F758CF7B
:100B300061917191072E000C880B990B93CFD52CE6
:100B4000E894D4F82AE030E0853739F1952D997F83
:100B5000D92E8F3601F148F48835A9F0F701868146
:100B600097812B96E2E10C94D406803749F08837C0
:100B7000A9F7D4FE02C06894D2F820E130E00DC09D
:100B80006894D4F8F6CF54FE03C0E92FE660DE2E59
:100B900020E132E002C028E030E0F801D7FE0DC0CD
:100BA00061917191819191918F01A5010E945A06E5
:100BB000C82ECA18E894D7F86BCF6191719190E074
:100BC00080E0F2CF52FC02C083947ECF8394839462
:100BD0007BCF852D867809F477CFF6CFB70180E2F9
:100BE00090E00E942A0683948414C0F3312C79CFBC
:100BF000342C3818841408F474CFF8CF852D8678F7
:100C000009F481CF8BE251FE80E257FC8DE2B701FF
:100C100090E077CFB70180E390E00E942A069A9493
:100C200072CF8FEF9FEF9DCFFC0105906150704018
:100C30000110D8F7809590958E0F9F1F0895FC01A5
:100C40006150704001900110D8F7809590958E0FFB
:100C50009F1F08950F931F93CF93DF93182F092F92
:100C6000EB018B8181FD09C01FEF0FEF812F902FCA
:100C7000DF91CF911F910F91089582FF14C02E81B3
:100C80003F818C819D81281739073CF4E881F981E7
:100C9000CF0101969983888310838E819F8101966D
:100CA0009F838E83E3CFE885F985812F0995892B72
:100CB000A1F3DACFFA01AA27283051F1203181F1CE
:100CC000E8946F936E7F6E5F7F4F8F4F9F4FAF4F54
:100CD000B1E03ED0B4E03CD0670F781F891F9A1F67
:100CE000A11D680F791F8A1F911DA11D6A0F711D1B
:100CF000811D911DA11D20D009F468943F912AE027
:100D0000269F11243019305D3193DEF6CF0108950E
:100D1000462F4770405D4193B3E00FD0C9F7F6CF3F
:100D2000462F4F70405D4A3318F0495D31FD405207
:100D3000419302D0A9F7EACFB4E0A695979587959D
:100D400077956795BA95C9F700976105710508957C
:100D50009B01AC010A2E0694579547953795279528
:100D6000BA95C9F7620F731F841F951FA01D0895C0
:100D70002F923F924F925F926F927F928F929F92AB
:100D8000AF92BF92CF92DF92EF92FF920F931F9399
:100D9000CF93DF93CDB7DEB7CA1BDB0B0FB6F8944A
:100DA000DEBF0FBECDBF09942A88398848885F848A
:100DB0006E847D848C849B84AA84B984C884DF80FB
:100DC000EE80FD800C811B81AA81B981CE0FD11DDF
:100DD0000FB6F894DEBF0FBECDBFED010895F894B5
:020DE000FFCF43
:100DE20058756E673A2000546F6320646F3A200092
:100DF20025642E256420562F732020200025642090
:060E020025252020000060
:00000001FF
