:100000000C942A000C9492000C9447000C94470026
:100010000C940D010C9447000C9447000C9447007D
:100020000C9447000C94B7000C9447000C944700C4
:100030000C9447000C9447000C9447000C94470024
:100040000C9447000C9447000C9447000C94470014
:100050000C94470011241FBECFE5D4E0DEBFCDBF16
:1000600010E0A0E6B0E0E4E9FDE002C005900D92EA
:10007000A638B107D9F720E0A6E8B0E001C01D928C
:10008000A53AB207E1F70E9499010C94C8060C94B6
:100090000000A99A85E08A95F1F70000A9988FE3FE
:1000A0009FE10197F1F700C00000089585BBA89873
:1000B0000C94490085BBA89A0C94490081E00E94E9
:1000C00056008FE39FE10197F1F700C0000008950B
:1000D0008FEF84BB2FEF89EF90E02150804090405C
:1000E000E1F700C0000088E30E9456008CE00E9407
:1000F000560086E00E94560081E00C945600611183
:1001000002C0805801C080540C945600CF93DF93F6
:10011000EC018991882319F00E945A00FACFDF91EF
:10012000CF9108951F920F920FB60F9211248F93C3
:100130009F93AF93BF9380918B0090918C00A0917F
:100140008D00B0918E000196A11DB11D80938B0092
:1001500090938C00A0938D00B0938E00BF91AF91CF
:100160009F918F910F900FBE0F901F9018951F9227
:100170000F920FB60F9211242F933F934F935F93DB
:100180006F937F938F939F93AF93BF93EF93FF935F
:1001900013BE80918A00843130F110928A00609100
:1001A0008B0070918C0080918D0090918E000E9448
:1001B000E30220E030E040E05CE30E94710320E0D5
:1001C00030E040E251E40E9471030E94B402709357
:1001D000A4006093A30010928B0010928C001092E8
:1001E0008D0010928E0080918A008F5F80938A002C
:1001F00085E083BF86E082BFFF91EF91BF91AF9111
:100200009F918F917F916F915F914F913F912F912E
:100210000F900FBE0F901F9018951F920F920FB660
:100220000F9211242F933F938F939F9315BC80912E
:100230008900853008F46CC010928900B09917C00D
:100240008FE39CE90197F1F700C00000B09951C01D
:10025000B09BFECF80918700909188008C509E4F7C
:100260008F332FE19207E0F08FE39FE119C0B1993E
:1002700021C08091870090918800843F9140A8F030
:100280008FE39CE90197F1F700C00000B19931C0FC
:10029000B19BFECF8091870090918800845F914050
:1002A000909388008093870024C010928800109259
:1002B00087001FC0B2990DC08FE39CE90197F1F749
:1002C00000C00000B29915C0B29BFECF92B388E087
:1002D0000EC0B3990EC08FE39CE90197F1F700C0FF
:1002E0000000B39906C0B39BFECF92B382E089278A
:1002F00082BB2091870030918800939903C03BBD59
:100300002ABD06C08FE39FE1821B930B9BBD8ABD74
:10031000809189008F5F8093890014BC87E085BD40
:100320009F918F913F912F910F900FBE0F901F9033
:10033000189587B3807F87BB88B38F6088BB81B3F4
:100340008A6281BB85E083BF86E082BF92E89FBD61
:1003500099E19EBD2FE33FE137BD26BD1BBC1ABC12
:1003600097E095BD84BD81E489BF8BB780648BBF66
:1003700085B7826085BF0E94680078940E945E0005
:1003800060E080E00E947F0080E690E00E948600AE
:1003900061E080E00E947F0087E690E00E94860096
:1003A0008AE0C82ED12C90E7E92E90E0F92ECFE814
:1003B000D0E00DE710E061E088E00E947F008091CE
:1003C000A3009091A400B6010E942E029F938F93E8
:1003D0007F936F93FF92EF92DF93CF930E94DE03A0
:1003E0008FE890E00E94860060E086E00E947F0037
:1003F000609187007091880080E090E00E94E302A5
:1004000020E038EF49EF55E40E94420220E030E05E
:1004100048EC52E40E9471030E94B402609386008B
:100420001F926F931F930F93DF93CF930E94DE036E
:100430008FE890E00E9486008FEF91EE24E08150DB
:1004400090402040E1F700C000008DB79EB70E96A7
:100450000FB6F8949EBF0FBE8DBFADCFAA1BBB1BBE
:1004600051E107C0AA1FBB1FA617B70710F0A61BB4
:10047000B70B881F991F5A95A9F780959095BC01D5
:10048000CD0108950E9456020C9437030E94300358
:1004900058F00E94290340F029F45F3F29F00C94A2
:1004A000200351110C946B030C9426030E94480303
:1004B00068F39923B1F3552391F3951B550BBB2793
:1004C000AA2762177307840738F09F5F5F4F220FD8
:1004D000331F441FAA1FA9F335D00E2E3AF0E0E8CF
:1004E00032D091505040E695001CCAF72BD0FE2F19
:1004F00029D0660F771F881FBB1F261737074807AD
:10050000AB07B0E809F0BB0B802DBF01FF27935864
:100510005F4F3AF09E3F510578F00C9420030C9405
:100520006B035F3FE4F3983ED4F386957795679528
:10053000B795F7959F5FC9F7880F911D9695879599
:1005400097F90895E1E0660F771F881FBB1F6217B8
:1005500073078407BA0720F0621B730B840BBA0B76
:10056000EE1F88F7E09508950E94500388F09F578A
:1005700098F0B92F9927B751B0F0E1F0660F771FC7
:10058000881F991F1AF0BA95C9F714C0B13091F0BD
:100590000E946A03B1E008950C946A03672F782FD4
:1005A0008827B85F39F0B93FCCF386957795679582
:1005B000B395D9F73EF490958095709561957F4FEE
:1005C0008F4F9F4F0895E89409C097FB3EF4909594
:1005D0008095709561957F4F8F4F9F4F9923A9F01C
:1005E000F92F96E9BB279395F695879577956795AB
:1005F000B795F111F8CFFAF4BB0F11F460FF1BC0EF
:100600006F5F7F4F8F4F9F4F16C0882311F096E981
:1006100011C0772321F09EE8872F762F05C066232F
:1006200071F096E8862F70E060E02AF09A95660FE8
:10063000771F881FDAF7880F9695879597F90895A1
:1006400097F99F6780E870E060E008959FEF80EC85
:10065000089500240A941616170618060906089528
:1006600000240A9412161306140605060895092E8E
:100670000394000C11F4882352F0BB0F40F4BF2BFD
:1006800011F460FF04C06F5F7F4F8F4F9F4F08953D
:1006900057FD9058440F551F59F05F3F71F0479533
:1006A000880F97FB991F61F09F3F79F08795089518
:1006B000121613061406551FF2CF4695F1DF08C037
:1006C000161617061806991FF1CF86957105610554
:1006D00008940895E894BB2766277727CB0197F9FC
:1006E00008950E9484030C9437030E94290338F074
:1006F0000E94300320F0952311F00C9420030C94F9
:10070000260311240C946B030E94480370F3959FF9
:10071000C1F3950F50E0551F629FF001729FBB27F8
:10072000F00DB11D639FAA27F00DB11DAA1F649F94
:100730006627B00DA11D661F829F2227B00DA11D47
:10074000621F739FB00DA11D621F839FA00D611DCD
:10075000221F749F3327A00D611D231F849F600DEE
:10076000211D822F762F6A2F11249F5750409AF017
:10077000F1F088234AF0EE0FFF1FBB1F661F771FA3
:10078000881F91505040A9F79E3F510580F00C946E
:1007900020030C946B035F3FE4F3983ED4F38695FB
:1007A00077956795B795F795E7959F5FC1F7FE2B0E
:1007B000880F911D9695879597F90895AEE0B0E062
:1007C000E4EEF3E00C949F060D891E8986E08C838D
:1007D0001A8309838FEF9FE79E838D83AE01475E67
:1007E0005F4F6F89788DCE0101960E940004EF81E2
:1007F000F885E00FF11F10822E96E4E00C94BB0602
:10080000ABE0B0E0E6E0F4E00C9491066C017B0113
:100810008A01FC0117821682838181FFCCC1CE013F
:1008200001963C01F6019381F70193FD859193FFB9
:1008300081917F01882309F4BAC1853239F493FD8F
:10084000859193FF81917F01853229F4B60190E073
:100850000E94F705E7CF912C212C312CFFE1F315F5
:10086000D8F08B3279F038F4803279F08332A1F409
:10087000232D20611DC08D3261F0803369F4232D5A
:10088000216016C0832D8260382EE32DE4603E2E59
:100890002AC0F32DF8601DC037FC2DC020ED280FB5
:1008A0002A3040F08E32B9F436FC81C1232D206409
:1008B000322E19C036FE06C08AE0989E200D112403
:1008C000922E11C0EAE02E9E200D1124222EF32D2F
:1008D000F0623F2E08C08C3621F4832D8068382EBC
:1008E00002C0883641F4F70193FD859193FF819111
:1008F0007F018111B3CF982F9F7D9554933028F4B9
:100900000C5F1F4F9FE399830DC0833631F083370F
:1009100071F0833509F059C021C0F80180818983C5
:100920000E5F1F4F88248394912C530113C028011C
:10093000F2E04F0E511CF801A080B18036FE03C0DA
:10094000692D70E002C06FEF7FEFC5010E94EC05DA
:100950004C018201F32DFF773F2E16C0280122E0C3
:10096000420E511CF801A080B18036FE03C0692DF3
:1009700070E002C06FEF7FEFC5010E94E1054C01FE
:10098000F32DF0683F2E820133FC1BC0822D90E0D6
:1009900088169906B0F4B60180E290E00E94F7054F
:1009A0002A94F4CFF50137FC859137FE81915F01E0
:1009B000B60190E00E94F70521102A9421E0821AE6
:1009C00091088114910471F7E8C0843611F08936DA
:1009D00041F5F80137FE07C0608171818281938102
:1009E0000C5F1F4F08C060817181072E000C880BBF
:1009F000990B0E5F1F4FF32DFF763F2E97FF09C017
:100A000090958095709561957F4F8F4F9F4FF068BF
:100A10003F2E2AE030E0A3010E943306882E86187C
:100A200045C0853731F4232D2F7EB22E2AE030E0E9
:100A300025C0932D997FB92E8F36C1F018F48835D3
:100A400079F0B5C0803719F0883721F0B0C0E92FB0
:100A5000E061BE2EB4FE0DC0FB2DF460BF2E09C0B8
:100A600034FE0AC0292F2660B22E06C028E030E0EE
:100A700005C020E130E002C020E132E0F801B7FE1D
:100A800007C060817181828193810C5F1F4F06C016
:100A90006081718180E090E00E5F1F4FA3010E9492
:100AA0003306882E8618FB2DFF773F2E36FE0DC0AD
:100AB000232D2E7FA22E891458F434FE0BC032FC55
:100AC00009C0832D8E7EA82E05C0B82CA32C03C090
:100AD000B82C01C0B92CA4FE0FC0FE01E80DF11D19
:100AE0008081803321F49A2D997EA92E09C0A2FE1F
:100AF00006C0B394B39404C08A2D867809F0B394E9
:100B0000A3FC11C0A0FE06C0B21488F4280C922CDD
:100B10009B180EC0B21460F4B60180E290E00E940F
:100B2000F705B394F7CFB21418F42B1802C0982C21
:100B3000212CA4FE10C0B60180E390E00E94F705CE
:100B4000A2FE17C0A1FC03C088E790E002C088E5C0
:100B500090E0B6010CC08A2D867859F0A1FE02C043
:100B60008BE201C080E2A7FC8DE2B60190E00E941A
:100B7000F705891438F4B60180E390E00E94F70588
:100B80009A94F7CF8A94F301E80DF11D8081B601A4
:100B900090E00E94F7058110F5CF222009F442CEA3
:100BA000B60180E290E00E94F7052A94F6CFF601A4
:100BB0008681978102C08FEF9FEF2B96E2E10C9424
:100BC000AD06FC010590615070400110D8F780958A
:100BD00090958E0F9F1F0895FC0161507040019009
:100BE0000110D8F7809590958E0F9F1F08950F9351
:100BF0001F93CF93DF93FB01238121FD03C08FEF70
:100C00009FEF2CC022FF16C0468157812481358179
:100C10004217530744F4A081B1819D012F5F3F4FDC
:100C2000318320838C93268137812F5F3F4F378319
:100C3000268314C08B01EC01FB010084F185E02DBB
:100C40000995892BE1F6D80116968D919C911797FD
:100C5000019617969C938E931697CE01DF91CF91B4
:100C60001F910F910895FA01AA27283051F12031E0
:100C700081F1E8946F936E7F6E5F7F4F8F4F9F4F30
:100C8000AF4FB1E03ED0B4E03CD0670F781F891F72
:100C90009A1FA11D680F791F8A1F911DA11D6A0F40
:100CA000711D811D911DA11D20D009F468943F91F3
:100CB0002AE0269F11243019305D3193DEF6CF01F2
:100CC0000895462F4770405D4193B3E00FD0C9F7B8
:100CD000F6CF462F4F70405D4A3318F0495D31FD25
:100CE0004052419302D0A9F7EACFB4E0A695979578
:100CF000879577956795BA95C9F70097610571054E
:100D000008959B01AC010A2E069457954795379597
:100D10002795BA95C9F7620F731F841F951FA01DF1
:100D200008952F923F924F925F926F927F928F928F
:100D30009F92AF92BF92CF92DF92EF92FF920F936A
:100D40001F93CF93DF93CDB7DEB7CA1BDB0B0FB674
:100D5000F894DEBF0FBECDBF09942A883988488831
:100D60005F846E847D848C849B84AA84B984C884C7
:100D7000DF80EE80FD800C811B81AA81B981CE0FBE
:100D8000D11D0FB6F894DEBF0FBECDBFED010895A3
:040D9000F894FFCF05
:100D940058756E673A2000546F6320646F3A2000E0
:100DA40025642E256420562F7320202000256420DE
:060DB400252520200000AF
:00000001FF
