:100000000C9434000C9451000C9451000C94510049
:100010000C9451000C9451000C9451000C9451001C
:100020000C9451000C9451000C9451000C9412014A
:100030000C9451000C9451000C9451000C945100FC
:100040000C9451000C9451000C9451000C945100EC
:100050000C9451000C9451000C9451000C945100DC
:100060000C9451000C94510011241FBECFEFD8E026
:10007000DEBFCDBF11E0A0E0B1E0E2E0F9E002C0F8
:1000800005900D92A232B107D9F721E0A2E2B1E0CA
:1000900001C01D92A532B207E1F70E9483010C94C2
:1000A0007F040C940000549A559A569A579A0895D2
:1000B0005A9A85E08A95F1F7000088274C99839534
:1000C0004D9982604E9984604F9988605A9895E066
:1000D0009A95F1F70000089580FF18C05C9A81FF9F
:1000E00017C05D9A82FF16C05E9A869586958695A2
:1000F000811591F05F9A5A9A85E08A95F1F7000090
:100100005A9885E08A95F1F7000008955C98E7CF4A
:100110005D98E8CF5E98E9CF5F98EDCF1F93CF93BE
:10012000DF93C82FD62F54985598569857985898BB
:10013000599A0E945800182F0E94580013FDF9CFB9
:1001400059980E945300D11571F0589A59988C2FE4
:1001500082958F700E946C008C2F8F70DF91CF91F1
:100160001F910C946C005898F1CF509A519A529A62
:100170000E9453002FEF89EF90E021508040904083
:10018000E1F700C000005898599883E00E946C0085
:100190008FE19EE40197F1F700C0000083E00E9428
:1001A0006C0087E592E00197F1F700C0000083E062
:1001B0000E946C0082E00E946C0060E088E20E9475
:1001C0008E0060E08CE00E948E0060E086E00E947D
:1001D0008E0060E081E00C948E0060E081E00C9481
:1001E0008E00962F8111905C60E0892F80680C94BE
:1001F0008E00CF93DF93EC018991811103C0DF91D1
:10020000CF91089561E00E948E00F6CFCF93DF93E7
:10021000D42FC52F0E94F1008D2F9C2FDF91CF91FD
:100220000C94F9001F921FB61F9211248F93809196
:1002300023018F5F80932301809123018C33C0F0D1
:1002400010922301809124018F5F8093240180917B
:1002500024018C3368F010922401809100018F5F9B
:100260008093000180910001883110F0109200010C
:1002700081E0809322018F911F901FBE1F901895DF
:100280008CE08093000110922401109223011092BF
:100290002201109280008DE08093810088E09DE330
:1002A000909389008093880082E080936F00789417
:1002B000089580912201811519F01092220181E0A8
:1002C0000895F89420910001309124014091230178
:1002D00078941F924F931F923F931F922F932DE07C
:1002E00031E03F932F931F9221E12F939F938F93A0
:1002F0000E94A9018DB79EB70C960FB6F8949EBFC9
:100300000FBE8DBF0895CDB7DEB761970FB6F894D5
:10031000DEBF0FBECDBF0E94B5000E94400141E08C
:1003200051E062E080E00E9406018E010F5F1F4FE6
:10033000C8010E946101A80161E081E00E940601FC
:100340000E9459018115E1F3C8010E946101A801D1
:10035000F3CFAEE0B0E0EFEAF1E00C9456040D8983
:100360001E898F89988D26E02C831A83098397FF35
:1003700002C080E090E801979E838D83AE01455EC8
:100380005F4F698D7A8DCE0101960E94D9014D8112
:100390005E8157FD0AC02F813885421753070CF440
:1003A0009A01020F131FF80110822E96E4E00C94BC
:1003B0007204ABE0B0E0EFEDF1E00C9448047C0196
:1003C0003B018A01FC0117821682838181FFB9C13A
:1003D0009AE0292ECE0101965C01F7019381F30189
:1003E00093FD859193FF81913F01882309F446C1D4
:1003F000853239F493FD859193FF81913F018532D8
:1004000029F4B70190E00E94BA03E7CF912C412C68
:10041000512CFFE1F51538F08B3209F188F4803268
:1004200001F1833221F157FC3AC020ED280F2A3028
:1004300040F556FE1FC0929C200D1124922E06C03E
:100440008D3291F0803379F7689450F8F30193FD81
:10045000859193FF81913F018111DBCF20C068948A
:1004600051F8689452F8F2CF689453F8EFCF68943B
:1004700054F8ECCF429C200D1124422E689455F87C
:10048000E5CF8E3229F456FCF9C0689456F8DECFD9
:100490008C3619F4689457F8D9CF8836B9F2982F6A
:1004A0009F7D95549330C0F08336A1F18337C1F11D
:1004B000833509F05BC0F801C190D1908F01692D9F
:1004C00070E056FC02C06FEF7FEFC6010E94A403EC
:1004D0004C01689457F80AC00C5F1F4F2FE3298323
:1004E00088248394912C6501E89457F853FC04C048
:1004F0004814190409F018F5342C8114910431F5CD
:10050000332009F46ACFB70180E290E00E94BA0379
:100510003A94F6CFF801808189830E5F1F4FE0CFB8
:10052000F801C190D1908F01692D70E056FC02C096
:100530006FEF7FEFC6010E94AF034C01D5CFB7012B
:1005400080E290E00E94BA034A94D2CFF60157FCB1
:10055000859157FE81916F01B70190E00E94BA0327
:1005600031103A94F1E08F1A9108C7CF843619F010
:10057000893609F074C0F80157FE6AC06191719123
:10058000819191918F01252D2F76D22E97FF09C051
:1005900090958095709561957F4F8F4F9F4F689490
:1005A000D7F82AE030E0A5010E94EA03C82ECA1855
:1005B0008C2C5D2CD6FE0CC0E89450F8C91440F485
:1005C000D4FE05C0D2FC03C0FD2DFE7E5F2E892C1B
:1005D00054FE8FC0FE01EC0DF11D8081803309F0C7
:1005E00081C0252D297E522E852D8870382E53FCF2
:1005F0008FC050FE89C09C2C841418F44C0C942C91
:10060000981854FE8BC0B70180E390E00E94BA03B3
:1006100052FE09C088E790E051FE02C088E590E0F4
:10062000B7010E94BA03C91408F484C0CA94D12C3B
:100630009FEFC91AD90ACA0CDB1CF60182916F011F
:10064000B70190E00E94BA03AC14BD04B1F758CFD3
:1006500061917191072E000C880B990B93CFD52CCB
:10066000E894D4F82AE030E0853739F1952D997F68
:10067000D92E8F3601F148F48835A9F0F70186812B
:1006800097812B96E2E10C946404803749F0883717
:10069000A9F7D4FE02C06894D2F820E130E00DC082
:1006A0006894D4F8F6CF54FE03C0E92FE660DE2E3E
:1006B00020E132E002C028E030E0F801D7FE0DC0B2
:1006C00061917191819191918F01A5010E94EA033D
:1006D000C82ECA18E894D7F86BCF6191719190E059
:1006E00080E0F2CF52FC02C083947ECF8394839447
:1006F0007BCF852D867809F477CFF6CFB70180E2DE
:1007000090E00E94BA0383948414C0F3312C79CF13
:10071000342C3818841408F474CFF8CF852D8678DB
:1007200009F481CF8BE251FE80E257FC8DE2B701E4
:1007300090E077CFB70180E390E00E94BA039A94EB
:1007400072CF8FEF9FEF9DCFFC01059061507040FD
:100750000110D8F7809590958E0F9F1F0895FC018A
:100760006150704001900110D8F7809590958E0FE0
:100770009F1F08950F931F93CF93DF93182F092F77
:10078000EB018B8181FD09C01FEF0FEF812F902FAF
:10079000DF91CF911F910F91089582FF14C02E8198
:1007A0003F818C819D81281739073CF4E881F981CC
:1007B000CF0101969983888310838E819F81019652
:1007C0009F838E83E3CFE885F985812F0995892B57
:1007D000A1F3DACFFA01AA27283051F1203181F1B3
:1007E000E8946F936E7F6E5F7F4F8F4F9F4FAF4F39
:1007F000B1E03ED0B4E03CD0670F781F891F9A1F4C
:10080000A11D680F791F8A1F911DA11D6A0F711DFF
:10081000811D911DA11D20D009F468943F912AE00B
:10082000269F11243019305D3193DEF6CF010895F3
:10083000462F4770405D4193B3E00FD0C9F7F6CF24
:10084000462F4F70405D4A3318F0495D31FD4052EC
:10085000419302D0A9F7EACFB4E0A6959795879582
:1008600077956795BA95C9F7009761057105089561
:100870009B01AC010A2E069457954795379527950D
:10088000BA95C9F7620F731F841F951FA01D0895A5
:100890002F923F924F925F926F927F928F929F9290
:1008A000AF92BF92CF92DF92EF92FF920F931F937E
:1008B000CF93DF93CDB7DEB7CA1BDB0B0FB6F8942F
:1008C000DEBF0FBECDBF09942A88398848885F846F
:1008D0006E847D848C849B84AA84B984C884DF80E0
:1008E000EE80FD800C811B81AA81B981CE0FD11DC4
:1008F0000FB6F894DEBF0FBECDBFED010895F8949A
:02090000FFCF27
:100902000C2D2D20434C4F434B202D2D0054494D8F
:100912004520253032753A253032753A2530327508
:020922000000D3
:00000001FF
