:100000000C9434000C9451000C9451000C94510049
:100010000C9451000C9451000C9451000C9451001C
:100020000C9451000C9451000C9451000C9451000C
:100030000C9451000C9451000C9451000C945100FC
:100040000C9451000C9451000C9451000C945100EC
:100050000C9451000C9451000C9451000C945100DC
:100060000C9451000C94510011241FBECFEFD8E026
:10007000DEBFCDBF11E0A0E0B1E0E0EAF8E002C0F1
:1000800005900D92A833B107D9F721E0A8E3B1E0BC
:1000900001C01D92AA33B207E1F70E9450010C94EF
:1000A0004E040C94000080FF1AC05C9A81FF19C0B6
:1000B0005D9A82FF18C05E9A869586958695811511
:1000C000A1F05F9A5B9A85E08A95F1F700005B9852
:1000D0008FE891E00197F1F700C0000008955C9867
:1000E000E5CF5D98E6CF5E98E7CF5F98EBCFCF93F3
:1000F000C82F5A9882958F700E9453008C2F8F7052
:100100000E9453008FE39FE10197F1F700C00000C8
:10011000CF910895529A539A549A559A569A579A4B
:100120002FEF89EF90E0215080409040E1F700C030
:1001300000005A985B9883E00E9453008FE19EE490
:100140000197F1F700C0000083E00E94530087E5AB
:1001500092E00197F1F700C0000083E00E94530095
:1001600082E00E94530088E20E9477008CE00E94A7
:10017000770086E00E94770081E00E9477008FE39D
:100180009FE10197F1F700C00000089581E00E940F
:1001900077008FE39FE10197F1F700C00000089519
:1001A0008111605C862F80680C9477000F931F93F9
:1001B000CF938C01F801C1918F01C11104C0CF917F
:1001C0001F910F9108955A9A8C2F82958F700E94DB
:1001D00053008C2F8F700E9453008FE99FE001978E
:1001E000F1F700C00000E6CFCF93DF93D42FC52FE7
:1001F0000E94D0008D2F9C2FDF91CF910C94D600C0
:100200008CE080930001109239011092380108951A
:100210002FEF83ED90E3215080409040E1F700C044
:100220000000809138018F5F8C3318F4809338017F
:10023000089510923801809139018F5F8C3318F442
:1002400080933901089510923901809100018F5FE8
:10025000883118F4809300010895109200010895E8
:10026000209138011F922F93209139011F922F93D3
:10027000209100011F922F9323E231E03F932F93AF
:100280001F9221E12F939F938F930E9478018DB746
:100290009EB70C960FB6F8949EBF0FBE8DBF089503
:1002A000CDB7DEB761970FB6F894DEBF0FBECDBFF6
:1002B0000E948A000E9400010E94C600CE010196A1
:1002C0000E94300141E051E060E080E00E94F400D3
:1002D000AE014F5F5F4F60E080E00E94F40042E1BA
:1002E00051E060E081E00E94F4000E940801E6CF46
:1002F000AEE0B0E0EEE7F1E00C9425040D891E8934
:100300008F89988D26E02C831A83098397FF02C07A
:1003100080E090E801979E838D83AE01455E5F4F3C
:10032000698D7A8DCE0101960E94A8014D815E8172
:1003300057FD0AC02F813885421753070CF49A01E4
:10034000020F131FF80110822E96E4E00C94410472
:10035000ABE0B0E0EEEAF1E00C9417047C013B0165
:100360008A01FC0117821682838181FFB9C19AE05C
:10037000292ECE0101965C01F7019381F30193FDD3
:10038000859193FF81913F01882309F446C185320D
:1003900039F493FD859193FF81913F01853229F4D2
:1003A000B70190E00E948903E7CF912C412C512C9A
:1003B000FFE1F51538F08B3209F188F4803201F154
:1003C000833221F157FC3AC020ED280F2A3040F546
:1003D00056FE1FC0929C200D1124922E06C08D3215
:1003E00091F0803379F7689450F8F30193FD85918B
:1003F00093FF81913F018111DBCF20C0689451F8B8
:10040000689452F8F2CF689453F8EFCF689454F898
:10041000ECCF429C200D1124422E689455F8E5CF74
:100420008E3229F456FCF9C0689456F8DECF8C362B
:1004300019F4689457F8D9CF8836B9F2982F9F7D70
:1004400095549330C0F08336A1F18337C1F18335E1
:1004500009F05BC0F801C190D1908F01692D70E067
:1004600056FC02C06FEF7FEFC6010E9473034C0180
:10047000689457F80AC00C5F1F4F2FE32983882424
:100480008394912C6501E89457F853FC04C04814F8
:10049000190409F018F5342C8114910431F5332036
:1004A00009F46ACFB70180E290E00E9489033A9490
:1004B000F6CFF801808189830E5F1F4FE0CFF801EE
:1004C000C190D1908F01692D70E056FC02C06FEF92
:1004D0007FEFC6010E947E034C01D5CFB70180E2B9
:1004E00090E00E9489034A94D2CFF60157FC85918F
:1004F00057FE81916F01B70190E00E94890331108E
:100500003A94F1E08F1A9108C7CF843619F08936F2
:1005100009F074C0F80157FE6AC061917191819130
:1005200091918F01252D2F76D22E97FF09C090959E
:100530008095709561957F4F8F4F9F4F6894D7F846
:100540002AE030E0A5010E94B903C82ECA188C2CFD
:100550005D2CD6FE0CC0E89450F8C91440F4D4FECB
:1005600005C0D2FC03C0FD2DFE7E5F2E892C54FEFB
:100570008FC0FE01EC0DF11D8081803309F081C038
:10058000252D297E522E852D8870382E53FC8FC044
:1005900050FE89C09C2C841418F44C0C942C981890
:1005A00054FE8BC0B70180E390E00E94890352FEA5
:1005B00009C088E790E051FE02C088E590E0B701ED
:1005C0000E948903C91408F484C0CA94D12C9FEFF7
:1005D000C91AD90ACA0CDB1CF60182916F01B70156
:1005E00090E00E948903AC14BD04B1F758CF61912B
:1005F0007191072E000C880B990B93CFD52CE894A2
:10060000D4F82AE030E0853739F1952D997FD92E3D
:100610008F3601F148F48835A9F0F701868197817A
:100620002B96E2E10C943304803749F08837A9F720
:10063000D4FE02C06894D2F820E130E00DC0689486
:10064000D4F8F6CF54FE03C0E92FE660DE2E20E199
:1006500032E002C028E030E0F801D7FE0DC0619121
:100660007191819191918F01A5010E94B903C82ECA
:10067000CA18E894D7F86BCF6191719190E080E04F
:10068000F2CF52FC02C083947ECF839483947BCFBD
:10069000852D867809F477CFF6CFB70180E290E018
:1006A0000E94890383948414C0F3312C79CF342CB5
:1006B0003818841408F474CFF8CF852D867809F49F
:1006C00081CF8BE251FE80E257FC8DE2B70190E0D2
:1006D00077CFB70180E390E00E9489039A9472CFAC
:1006E0008FEF9FEF9DCFFC0105906150704001108E
:1006F000D8F7809590958E0F9F1F0895FC0161504B
:10070000704001900110D8F7809590958E0F9F1F33
:1007100008950F931F93CF93DF93182F092FEB01A9
:100720008B8181FD09C01FEF0FEF812F902FDF918B
:10073000CF911F910F91089582FF14C02E813F81A8
:100740008C819D81281739073CF4E881F981CF011C
:1007500001969983888310838E819F8101969F8360
:100760008E83E3CFE885F985812F0995892BA1F345
:10077000DACFFA01AA27283051F1203181F1E8942B
:100780006F936E7F6E5F7F4F8F4F9F4FAF4FB1E084
:100790003ED0B4E03CD0670F781F891F9A1FA11D7F
:1007A000680F791F8A1F911DA11D6A0F711D811D80
:1007B000911DA11D20D009F468943F912AE0269F45
:1007C00011243019305D3193DEF6CF010895462FA4
:1007D0004770405D4193B3E00FD0C9F7F6CF462F85
:1007E0004F70405D4A3318F0495D31FD40524193EE
:1007F00002D0A9F7EACFB4E0A695979587957795AB
:100800006795BA95C9F700976105710508959B0131
:10081000AC010A2E06945795479537952795BA95BA
:10082000C9F7620F731F841F951FA01D08952F9293
:100830003F924F925F926F927F928F929F92AF9270
:10084000BF92CF92DF92EF92FF920F931F93CF93BD
:10085000DF93CDB7DEB7CA1BDB0B0FB6F894DEBF54
:100860000FBECDBF09942A88398848885F846E847A
:100870007D848C849B84AA84B984C884DF80EE80C4
:10088000FD800C811B81AA81B981CE0FD11D0FB6CD
:10089000F894DEBF0FBECDBFED010895F894FFCFF1
:1008A0000C2020202020202020202020202020205C
:1008B00020004C434420434C4F434B202020202019
:1008C00020200054494D4520253032753A253032DC
:0808D000753A25303275000075
:00000001FF
