:100000000C9434000C9451000C9451000C94510049
:100010000C9451000C9451000C9451000C9451001C
:100020000C9451000C9451000C9451000C9451000C
:100030000C9451000C9451000C9451000C945100FC
:100040000C9451000C9451000C9451000C945100EC
:100050000C9451000C9451000C9451000C945100DC
:100060000C9451000C94510011241FBECFEFD8E026
:10007000DEBFCDBF11E0A0E0B1E0ECE0F9E002C0EE
:1000800005900D92AA32B107D9F721E0AAE2B1E0BA
:1000900001C01D92AC32B207E1F70E9462010C94DC
:1000A00084040C940000549A559A569A579A0895CD
:1000B0005A9A85E08A95F1F7000088274C99839534
:1000C0004D9982604E9984604F9988605A9895E066
:1000D0009A95F1F70000089580FF18C05C9A81FF9F
:1000E00017C05D9A82FF16C05E9A869586958695A2
:1000F000811591F05F9A5A9A85E08A95F1F7000090
:100100005A9885E08A95F1F7000008955C98E7CF4A
:100110005D98E8CF5E98E9CF5F98EDCF1F93CF93BE
:10012000DF93C82FD62F54985598569857985898BB
:10013000599A0E945800182F0E94580013FDF9CFB9
:1001400059980E945300D11571F0589A59988C2FE4
:1001500082958F700E946C008C2F8F70DF91CF91F1
:100160001F910C946C005898F1CF509A519A529A62
:100170000E9453002FEF89EF90E021508040904083
:10018000E1F700C000005898599883E00E946C0085
:100190008FE19EE40197F1F700C0000083E00E9428
:1001A0006C0087E592E00197F1F700C0000083E062
:1001B0000E946C0082E00E946C0060E088E20E9475
:1001C0008E0060E08CE00E948E0060E086E00E947D
:1001D0008E0060E081E00C948E0060E081E00C9481
:1001E0008E00962F8111905C60E0892F80680C94BE
:1001F0008E00CF93DF93EC018991811103C0DF91D1
:10020000CF91089561E00E948E00F6CFCF93DF93E7
:10021000D42FC52F0E94F1008D2F9C2FDF91CF91FD
:100220000C94F9008CE08093000110922B01109245
:100230002A0108952FEF83ED90E3215080409040F4
:10024000E1F700C0000080912A018F5F8C3318F421
:1002500080932A01089510922A0180912B018F5FCB
:100260008C3318F480932B01089510922B01809108
:1002700000018F5F883118F4809300010895109277
:100280000001089520912A011F922F9320912B01A4
:100290001F922F93209100011F922F9326E131E0AE
:1002A0003F932F931F9221E12F939F938F930E944F
:1002B000AE018DB79EB70C960FB6F8949EBF0FBED9
:1002C0008DBF08950E94B5002FEF81EE94E021507C
:1002D00080409040E1F700C000000E94ED002FEF49
:1002E00080E792E0215080409040E1F700C000009C
:1002F00060E080E00E94F1008FE39CE90197F1F754
:1003000000C0000081E091E00E94F9009FEF20E72B
:1003100082E0915020408040E1F700C0000060E0A2
:1003200081E00E94F1008FE39CE90197F1F700C0A2
:1003300000008BE091E00E94F9009FEF20E782E04F
:10034000915020408040E1F700C000009FEF23ED76
:1003500080E3915020408040E1F7F6CFAEE0B0E07E
:10036000E4EBF1E00C945B040D891E898F89988D74
:1003700026E02C831A83098397FF02C080E090E86F
:1003800001979E838D83AE01455E5F4F698D7A8DA7
:10039000CE0101960E94DE014D815E8157FD0AC0AB
:1003A0002F813885421753070CF49A01020F131F4F
:1003B000F80110822E96E4E00C947704ABE0B0E0F4
:1003C000E4EEF1E00C944D047C013B018A01FC0158
:1003D00017821682838181FFB9C19AE0292ECE014E
:1003E00001965C01F7019381F30193FD859193FFE1
:1003F00081913F01882309F446C1853239F493FD88
:10040000859193FF81913F01853229F4B70190E0F6
:100410000E94BF03E7CF912C412C512CFFE1F51531
:1004200038F08B3209F188F4803201F1833221F106
:1004300057FC3AC020ED280F2A3040F556FE1FC069
:10044000929C200D1124922E06C08D3291F08033A3
:1004500079F7689450F8F30193FD859193FF8191AA
:100460003F018111DBCF20C0689451F8689452F8A5
:10047000F2CF689453F8EFCF689454F8ECCF429CD5
:10048000200D1124422E689455F8E5CF8E3229F4C0
:1004900056FCF9C0689456F8DECF8C3619F468948F
:1004A00057F8D9CF8836B9F2982F9F7D955493305D
:1004B000C0F08336A1F18337C1F1833509F05BC009
:1004C000F801C190D1908F01692D70E056FC02C0F7
:1004D0006FEF7FEFC6010E94A9034C01689457F8A3
:1004E0000AC00C5F1F4F2FE3298388248394912C2B
:1004F0006501E89457F853FC04C04814190409F046
:1005000018F5342C8114910431F5332009F46ACFA5
:10051000B70180E290E00E94BF033A94F6CFF80161
:10052000808189830E5F1F4FE0CFF801C190D19089
:100530008F01692D70E056FC02C06FEF7FEFC6019E
:100540000E94B4034C01D5CFB70180E290E00E9435
:10055000BF034A94D2CFF60157FC859157FE819193
:100560006F01B70190E00E94BF0331103A94F1E0AF
:100570008F1A9108C7CF843619F0893609F074C0F4
:10058000F80157FE6AC061917191819191918F013B
:10059000252D2F76D22E97FF09C0909580957095C6
:1005A00061957F4F8F4F9F4F6894D7F82AE030E0D6
:1005B000A5010E94EF03C82ECA188C2C5D2CD6FE14
:1005C0000CC0E89450F8C91440F4D4FE05C0D2FC25
:1005D00003C0FD2DFE7E5F2E892C54FE8FC0FE01D0
:1005E000EC0DF11D8081803309F081C0252D297E1D
:1005F000522E852D8870382E53FC8FC050FE89C036
:100600009C2C841418F44C0C942C981854FE8BC019
:10061000B70180E390E00E94BF0352FE09C088E763
:1006200090E051FE02C088E590E0B7010E94BF0350
:10063000C91408F484C0CA94D12C9FEFC91AD90AEE
:10064000CA0CDB1CF60182916F01B70190E00E9499
:10065000BF03AC14BD04B1F758CF61917191072E5F
:10066000000C880B990B93CFD52CE894D4F82AE092
:1006700030E0853739F1952D997FD92E8F3601F1EC
:1006800048F48835A9F0F701868197812B96E2E13D
:100690000C946904803749F08837A9F7D4FE02C06A
:1006A0006894D2F820E130E00DC06894D4F8F6CF19
:1006B00054FE03C0E92FE660DE2E20E132E002C0E6
:1006C00028E030E0F801D7FE0DC061917191819171
:1006D00091918F01A5010E94EF03C82ECA18E894DA
:1006E000D7F86BCF6191719190E080E0F2CF52FC2E
:1006F00002C083947ECF839483947BCF852D8678AC
:1007000009F477CFF6CFB70180E290E00E94BF03F3
:1007100083948414C0F3312C79CF342C381884148A
:1007200008F474CFF8CF852D867809F481CF8BE259
:1007300051FE80E257FC8DE2B70190E077CFB70120
:1007400080E390E00E94BF039A9472CF8FEF9FEFF7
:100750009DCFFC010590615070400110D8F7809545
:1007600090958E0F9F1F0895FC016150704001907D
:100770000110D8F7809590958E0F9F1F08950F93C5
:100780001F93CF93DF93182F092FEB018B8181FDEE
:1007900009C01FEF0FEF812F902FDF91CF911F9195
:1007A0000F91089582FF14C02E813F818C819D811D
:1007B000281739073CF4E881F981CF010196998324
:1007C000888310838E819F8101969F838E83E3CFE0
:1007D000E885F985812F0995892BA1F3DACFFA01F4
:1007E000AA27283051F1203181F1E8946F936E7F70
:1007F0006E5F7F4F8F4F9F4FAF4FB1E03ED0B4E061
:100800003CD0670F781F891F9A1FA11D680F791FA1
:100810008A1F911DA11D6A0F711D811D911DA11DB2
:1008200020D009F468943F912AE0269F11243019C2
:10083000305D3193DEF6CF010895462F4770405D5D
:100840004193B3E00FD0C9F7F6CF462F4F70405D0C
:100850004A3318F0495D31FD4052419302D0A9F767
:10086000EACFB4E0A6959795879577956795BA9561
:10087000C9F700976105710508959B01AC010A2E27
:1008800006945795479537952795BA95C9F7620FFE
:10089000731F841F951FA01D08952F923F924F92A2
:1008A0005F926F927F928F929F92AF92BF92CF9200
:1008B000DF92EF92FF920F931F93CF93DF93CDB709
:1008C000DEB7CA1BDB0B0FB6F894DEBF0FBECDBF81
:1008D00009942A88398848885F846E847D848C8452
:1008E0009B84AA84B984C884DF80EE80FD800C815B
:1008F0001B81AA81B981CE0FD11D0FB6F894DEBF3E
:0C0900000FBECDBFED010895F894FFCFAD
:10090C000C48656C6C6F204C43440041546D65671A
:10091C0061333238500054494D4520253032753AF8
:0A092C00253032753A25303275008F
:00000001FF
