:100000000C9436000C945E000C945E000C945E0020
:100010000C945E000C945E000C945E000C945E00E8
:100020000C945E000C945E000C945E000C945E00D8
:100030000C945E000C945E000C945E000C945E00C8
:100040000C945E000C945E000C945E000C945E00B8
:100050000C945E000C945E000C945E000C945E00A8
:100060000C945E000C945E002A03510311241FBE01
:10007000CFEFD8E0DEBFCDBF11E0A0E0B1E0EAEB0A
:10008000F6E002C005900D92AC31B107D9F721E03E
:10009000ACE1B1E001C01D92A936B207E1F710E072
:1000A000C6E3D0E004C02197FE010E945503C4338B
:1000B000D107C9F70E9431030C945B030C94000034
:1000C0008CE191E00E94FA018CE191E00C949200A5
:1000D000FC018AE191E091838083628347832087DA
:1000E000118608950F931F93CF938C01C62FFC01A7
:1000F000628186E291E00E945F02F80181856C2FA7
:10010000682B86E291E00E946D0261E086E291E058
:10011000CF911F910F910C94EB02FC01118660E0CE
:100120000C947200FC0188E0818760E0CF010C94A0
:1001300072001F93CF93DF93182FD92FC62F6460BF
:100140000E94720081E090E00E941D036C2F6B7F83
:10015000812F9D2F0E94720082E390E0DF91CF916A
:100160001F910C941D031F93CF93DF93D82FC92F9A
:10017000162F0E947200612F8D2F9C2FDF91CF913F
:100180001F910C9499000F931F93CF93DF93182F17
:10019000D92FC62F042F862F807F682F642B812FA5
:1001A0000E94B3006C2F6295607F602B812F9D2F82
:1001B000DF91CF911F910F910C94B30061E00E94E9
:1001C000480380ED97E00C941D0362E00E94480311
:1001D00080ED97E00C941D03CF93DF93CDB7DEB78E
:1001E00028970FB6F894DEBF0FBECDBF9C0188E004
:1001F000E0E0F1E0DE01119601900D928A95E1F7C1
:10020000F9018681841710F44FEF480FFE013196F3
:10021000E40FF11DE40FF11D8081680F6068C901D2
:1002200028960FB6F894DEBF0FBECDBFDF91CF91F9
:100230000C944803FC0164816B7F648368600C94B8
:100240004803FC016481862F846084836C60CF0145
:100250000C944803FC0164816D7F648368600C9496
:100260004803FC016481862F826084836A60CF0129
:100270000C944803FC0164816E7F648368600C9475
:100280004803FC016481862F816084836960CF010B
:100290000C94480368E10C9448036CE10C94480307
:1002A000FC016581862F826085836660CF010C9496
:1002B0004803FC0165816D7F658364600C9448038D
:1002C000FC016581862F816085836560CF010C9478
:1002D0004803FC0165816E7F658364600C9448036C
:1002E000EF92FF920F931F93CF93DF938C017A01CC
:1002F000660F660F660F687360640E944803E7012B
:10030000C70108967C016991D801ED91FC9101909B
:10031000F081E02DC8010995CE15DF05A1F7DF9129
:10032000CF911F910F91FF90EF900895CF93DF939E
:10033000EC01423018F08B8188608B834E8321154D
:1003400029F0413019F48B8184608B8362E370E083
:1003500080E090E00E9404036985CE010E94720053
:1003600068EE73E080E090E00E94040360E3CE0159
:100370000E94B30084E991E10E941D0360E3CE0175
:100380000E94B30084E991E10E941D0360E3CE0165
:100390000E94B30086E990E00E941D0360E2CE0156
:1003A0000E94B3006B816062CE010E94480384E02A
:1003B0008C83CE010E942101CE010E94DE0082E0EA
:1003C0008D8366E0CE010E944803CE01DF91CF917C
:1003D0000C94E500CF93DF93EC0186E291E00E945C
:1003E0005D021B8220E048856F81CE01DF91CF91B5
:1003F0000C9496010C94EA010C9431010C942A019E
:100400000C9441010C943A010C94700161110C940C
:1004100092000C948D00EF92FF920F931F93CF9355
:10042000DF937C01EB012097A9F0DB010D90002008
:10043000E9F78D0101501109C017D10759F0D70113
:10044000ED91FC910190F081E02D6991C701099532
:10045000892B91F7DF91CF911F910F91FF90EF9032
:10046000089508950895089580E0089580E008951E
:1004700080E00895089508950895FC0110A2DC011C
:10048000AF5BBF4F1D921C9280E2DF01982F1D923F
:100490009A95E9F7B196DF011D928A95E9F70895DB
:1004A0001092BC00089508951092B90088E48093DA
:1004B000B80084E08093BC0008950C945402FC01C1
:1004C000DC01AE5BBF4F6C9310A20895FC01DC0110
:1004D000AE5BBF4F6C9310A20895DC019096EC9137
:1004E0009097E03260F481E08E0F90968C93909715
:1004F000EA0FFB2FF11D608381E090E0089580E01A
:1005000090E00895CF92DF92EF92FF920F931F93A6
:10051000CF93DF93F82EE92E6A018B01C0E0D0E083
:10052000CC15DD0551F4CE01DF91CF911F910F91D4
:10053000FF90EF90DF90CF900895F80161918F01C7
:100540008F2D9E2D0E946D02892B69F32196E8CF95
:100550000F9384EA8093BC008091BC0087FFFCCF9E
:100560008091B900887F883011F0803181F5660F65
:100570006093BB0084E88093BC008091BC0087FF3F
:10058000FCCF8091B900887F883111F0803209F565
:10059000FA0194E88E2F841B821780F48191809356
:1005A000BB009093BC008091BC0087FFFCCF809182
:1005B000B900887F883271F3803361F3011103C081
:1005C00080E00F91089584E98093BC00F9CF81E029
:1005D000F8CF82E0F6CF0F93FC01062FDC01AE5B73
:1005E000BF4F20A1AC016C910E94A8020F91089509
:1005F00084E98093BC00089580E0089580E090E055
:100600000895089580E008950F931F938B019C0136
:1006100080E090E0DC0180179107A207B30719F48E
:100620001F910F91089542E85FE000004150504053
:10063000E1F70196A11DB11DEECF9C0180E090E095
:100640008217930731F000000000000000000196BF
:10065000F7CF089522E040E167E28CE191E00C944D
:1006600068000E94600040E060E08CE191E00E9440
:10067000EC00C8E0D1E0688121968CE191E00E9415
:100680004B03892B21F081E0C531D807A1F7FFCFBB
:1006900040E00C94C30041E00E94C30081E090E080
:1006A000089586E291E00C943D02EE0FFF1F059045
:0A06B000F491E02D0994F894FFCFB7
:1006BA00000040001400540048656C6C6F2C2057F1
:0C06CA006F726C642100000000004B0304
:00000001FF
